{
  "contractName": "AAVEEtherEscrow",
  "abi": [
    {
      "inputs": [
        {
          "internalType": "address",
          "name": "_arbiter",
          "type": "address"
        },
        {
          "internalType": "address",
          "name": "_beneficiary",
          "type": "address"
        }
      ],
      "stateMutability": "payable",
      "type": "constructor"
    },
    {
      "stateMutability": "payable",
      "type": "receive"
    },
    {
      "inputs": [],
      "name": "approve",
      "outputs": [],
      "stateMutability": "nonpayable",
      "type": "function"
    }
  ],
  "bytecode": "0x60806040819052600480546001600160a01b031990811673dcd33426ba191383f1c9b431a342498fdac73488179091556005805490911673030ba81f1c18d280636f32af80b9aad02cf0854e1790556103c53881900390819083398101604081905261006a91610129565b600080546001600160a01b038481166001600160a01b03199283161783556002805485831690841617905560018054909216331790915534600355600480546040516358c22be760e01b8152309281019290925260248201939093529116906358c22be79047906044016000604051808303818588803b1580156100ed57600080fd5b505af1158015610101573d6000803e3d6000fd5b5050505050505061015c565b80516001600160a01b038116811461012457600080fd5b919050565b6000806040838503121561013c57600080fd5b6101458361010d565b91506101536020840161010d565b90509250929050565b61025a8061016b6000396000f3fe6080604052600436106100225760003560e01c806312424e3f1461002e57600080fd5b3661002957005b600080fd5b34801561003a57600080fd5b50610043610045565b005b6000546001600160a01b0316331461005c57600080fd5b6005546004805460405163095ea7b360e01b81526001600160a01b039182169281019290925260001960248301529091169063095ea7b390604401602060405180830381600087803b1580156100b157600080fd5b505af11580156100c5573d6000803e3d6000fd5b505050506040513d601f19601f820116820180604052508101906100e991906101fb565b5060048054604051631b08c5a960e11b8152600019928101929092523060248301526001600160a01b0316906336118b5290604401600060405180830381600087803b15801561013857600080fd5b505af115801561014c573d6000803e3d6000fd5b5050600254600354604051600094506001600160a01b039092169250908381818185875af1925050503d80600081146101a1576040519150601f19603f3d011682016040523d82523d6000602084013e6101a6565b606091505b50509050806101ed5760405162461bcd60e51b815260206004820152600f60248201526e151c985b9cd9995c8811985a5b1959608a1b604482015260640160405180910390fd5b6001546001600160a01b0316ff5b60006020828403121561020d57600080fd5b8151801515811461021d57600080fd5b939250505056fea264697066735822122067b6a857bc4b855160bab19d258fbe1a7d90391137680b8e81ead8b0d0dc279164736f6c63430008090033",
  "immutableReferences": {},
  "source": "//SPDX-License-Identifier: Unlicense\npragma solidity ^0.8.0;\n\nimport \"./Interfaces/IERC20.sol\";\nimport \"./Interfaces/IWETHGateway.sol\";\n\ncontract AAVEEtherEscrow {\n    address arbiter;\n    address depositor;\n    address beneficiary; \n    uint initialDeposit;\n    \n    \n    IWETHGateway gateway = IWETHGateway(0xDcD33426BA191383f1c9B431A342498fdac73488);\n    IERC20 aWETH = IERC20(0x030bA81f1c18d280636F32af80b9AAd02Cf0854e);\n\n    constructor(address _arbiter, address _beneficiary) payable {\n        arbiter = _arbiter;\n        beneficiary = _beneficiary;\n        depositor = msg.sender;\n        //depositor/msg.sender deposits his own funds in constructor here with msg.value.\n        initialDeposit = msg.value;\n\n        // Here we dposit ETH through the WETH gateway\n        gateway.depositETH{value: address(this).balance}(address(this), 0);\n        \n    }\n\n    //Must have a receive function to receive the funds back. \n    receive() external payable{}\n \n    //Only the arbiter can call this. Must give the \n    function approve() external {\n        require(msg.sender == arbiter);\n        //Here we give the gateway approval on the aWETH contract first. \n        //Then call withdraw on the gateway and set the amount to \"type(uint256).max\" which refers to the entire balance\n        aWETH.approve(address(gateway), type(uint256).max);\n        gateway.withdrawETH(type(uint256).max, address(this));\n\n        //Here we return the principal/initialDeposit to the beneficiary.\n        (bool success,) = payable(beneficiary).call{value: initialDeposit}(\"\");\n        require(success, \"Transfer Failed\");\n        //Now the aWETH interest earned is paid to the depositor and we can self destruct since contract's use is done\n        selfdestruct(payable(depositor));\n    }\n}\n",
  "sourcePath": "/Users/josephdeangeloi/Documents/Github/BuildingOnAave/contracts/AAVEEtherEscrow.sol",
  "compiler": {
    "name": "solc",
    "version": "0.8.9+commit.e5eed63a.Emscripten.clang"
  },
  "schemaVersion": "3.4.10",
  "updatedAt": "2022-10-24T21:20:37.645Z",
  "devdoc": {
    "kind": "dev",
    "methods": {},
    "version": 1
  },
  "userdoc": {
    "kind": "user",
    "methods": {},
    "version": 1
  }
}