{
  "contractName": "AAVEDAIEscrow",
  "abi": [
    {
      "inputs": [
        {
          "internalType": "address",
          "name": "_arbiter",
          "type": "address"
        },
        {
          "internalType": "address",
          "name": "_beneficiary",
          "type": "address"
        },
        {
          "internalType": "uint256",
          "name": "_amount",
          "type": "uint256"
        }
      ],
      "stateMutability": "nonpayable",
      "type": "constructor"
    },
    {
      "inputs": [],
      "name": "approve",
      "outputs": [],
      "stateMutability": "nonpayable",
      "type": "function"
    }
  ],
  "bytecode": "0x6080604052600480546001600160a01b0319908116737d2768de32b0b80b7a3454c06bdac94a69ddc7a91790915560058054821673028171bca77440897b824ca71d1c56cac55b68a317905560068054909116736b175474e89094c44da98b954eedeac495271d0f17905534801561007657600080fd5b506040516104c53803806104c583398101604081905261009591610280565b600080546001600160a01b03199081166001600160a01b0386811691909117909255600280548216858416179055600180543392168217905560038390556006546040516323b872dd60e01b8152600481019290925230602483015260448201849052909116906323b872dd90606401602060405180830381600087803b15801561011f57600080fd5b505af1158015610133573d6000803e3d6000fd5b505050506040513d601f19601f8201168201806040525081019061015791906102bc565b506006546004805460405163095ea7b360e01b81526001600160a01b0391821692810192909252602482018490529091169063095ea7b390604401602060405180830381600087803b1580156101ac57600080fd5b505af11580156101c0573d6000803e3d6000fd5b505050506040513d601f19601f820116820180604052508101906101e491906102bc565b506004805460065460405163e8eda9df60e01b81526001600160a01b03918216938101939093526024830184905230604484015260006064840152169063e8eda9df90608401600060405180830381600087803b15801561024457600080fd5b505af1158015610258573d6000803e3d6000fd5b505050505050506102e5565b80516001600160a01b038116811461027b57600080fd5b919050565b60008060006060848603121561029557600080fd5b61029e84610264565b92506102ac60208501610264565b9150604084015190509250925092565b6000602082840312156102ce57600080fd5b815180151581146102de57600080fd5b9392505050565b6101d1806102f46000396000f3fe608060405234801561001057600080fd5b506004361061002b5760003560e01c806312424e3f14610030575b600080fd5b61003861003a565b005b6000546001600160a01b0316331461005157600080fd5b60048054600654600354600254604051631a4ca37b60e21b81526001600160a01b039384169581019590955260248501919091528116604484015216906369328dec90606401602060405180830381600087803b1580156100b157600080fd5b505af11580156100c5573d6000803e3d6000fd5b505050506040513d601f19601f820116820180604052508101906100e99190610182565b5060048054600654600154604051631a4ca37b60e21b81526001600160a01b039283169481019490945260001960248501528116604484015216906369328dec90606401602060405180830381600087803b15801561014757600080fd5b505af115801561015b573d6000803e3d6000fd5b505050506040513d601f19601f8201168201806040525081019061017f9190610182565b50565b60006020828403121561019457600080fd5b505191905056fea2646970667358221220369e45cdc3b6ab5c7cafebc15538f12c4fc528eb2ac31ee8b26a535d012bb55564736f6c63430008090033",
  "immutableReferences": {},
  "source": "//SPDX-License-Identifier: Unlicense\npragma solidity ^0.8.0;\n\nimport \"./Interfaces/IERC20.sol\";\nimport \"./Interfaces/ILendingPool.sol\";\n\ncontract AAVEDAIEscrow {\n    address arbiter;\n    address depositor;\n    address beneficiary;\n    uint initialDeposit;\n\n    // the mainnet AAVE v2 lending pool\n    ILendingPool pool = ILendingPool(0x7d2768dE32b0b80b7a3454c06BdAc94A69DDc7A9);\n    // aave interest bearing DAI\n    IERC20 aDai = IERC20(0x028171bCA77440897B824Ca71D1c56caC55b68A3);\n    // the DAI stablecoin \n    IERC20 dai = IERC20(0x6B175474E89094C44Da98b954EedeAC495271d0F);\n\n    constructor(address _arbiter, address _beneficiary, uint _amount) {\n        arbiter = _arbiter;\n        beneficiary = _beneficiary;\n        depositor = msg.sender;\n        initialDeposit = _amount;\n\n        //Depositor/msg.sender transfers dai to this contract.\n        IERC20(dai).transferFrom(msg.sender, address(this), _amount); \n\n        //Now that DAI is the contract, we deposit it into the AAVE lending pool\n        //First we need to apporve the lending pool to spend our DAI, \n        IERC20(dai).approve(address(pool), _amount);\n        //Now we call deposit on the pool with the proper parameters\n        pool.deposit(address(dai), _amount, address(this), 0);\n    }\n\n    function approve() external {\n        require(msg.sender == arbiter);\n        //Here the initialDeposit is returned to the beneficiary\n        pool.withdraw(address(dai), initialDeposit, beneficiary);\n        //Now the remaining balance which is the interst earned can be sent to the depositor\n        pool.withdraw(address(dai), type(uint).max, depositor);\n    }\n}\n",
  "sourcePath": "/Users/josephdeangeloi/Documents/Github/BuildingOnAave/contracts/AAVEDAIEscrow.sol",
  "compiler": {
    "name": "solc",
    "version": "0.8.9+commit.e5eed63a.Emscripten.clang"
  },
  "schemaVersion": "3.4.10",
  "updatedAt": "2022-10-24T21:20:37.644Z",
  "devdoc": {
    "kind": "dev",
    "methods": {},
    "version": 1
  },
  "userdoc": {
    "kind": "user",
    "methods": {},
    "version": 1
  }
}