{
  "contractName": "AAVEInterestLottery",
  "abi": [
    {
      "inputs": [],
      "stateMutability": "nonpayable",
      "type": "constructor"
    },
    {
      "anonymous": false,
      "inputs": [
        {
          "indexed": false,
          "internalType": "address",
          "name": "",
          "type": "address"
        }
      ],
      "name": "Winner",
      "type": "event"
    },
    {
      "inputs": [],
      "name": "drawing",
      "outputs": [
        {
          "internalType": "uint256",
          "name": "",
          "type": "uint256"
        }
      ],
      "stateMutability": "view",
      "type": "function"
    },
    {
      "inputs": [
        {
          "internalType": "address",
          "name": "",
          "type": "address"
        }
      ],
      "name": "purchasedTicket",
      "outputs": [
        {
          "internalType": "bool",
          "name": "",
          "type": "bool"
        }
      ],
      "stateMutability": "view",
      "type": "function"
    },
    {
      "inputs": [
        {
          "internalType": "uint256",
          "name": "",
          "type": "uint256"
        }
      ],
      "name": "ticketHolders",
      "outputs": [
        {
          "internalType": "address",
          "name": "",
          "type": "address"
        }
      ],
      "stateMutability": "view",
      "type": "function"
    },
    {
      "inputs": [],
      "name": "purchase",
      "outputs": [],
      "stateMutability": "nonpayable",
      "type": "function"
    },
    {
      "inputs": [],
      "name": "pickWinner",
      "outputs": [],
      "stateMutability": "nonpayable",
      "type": "function"
    }
  ],
  "bytecode": "0x608060405268056bc75e2d63100000600155600380546001600160a01b0319908116737d2768de32b0b80b7a3454c06bdac94a69ddc7a91790915560048054821673028171bca77440897b824ca71d1c56cac55b68a317905560058054909116736b175474e89094c44da98b954eedeac495271d0f17905534801561008357600080fd5b506100914262093a80610099565b6000556100bf565b600082198211156100ba57634e487b7160e01b600052601160045260246000fd5b500190565b610497806100ce6000396000f3fe608060405234801561001057600080fd5b50600436106100575760003560e01c80635d495aea1461005c57806364edfbf0146100665780639c067c321461006e578063b77200b11461009e578063de0a7cc6146100b5575b600080fd5b6100646100e8565b005b610064610179565b61008161007c366004610399565b61036f565b6040516001600160a01b0390911681526020015b60405180910390f35b6100a760005481565b604051908152602001610095565b6100d86100c33660046103b2565b60026020526000908152604090205460ff1681565b6040519015158152602001610095565b60005442116100f657600080fd5b6006546000816101076001436103e2565b610112919040610407565b905060006006828154811061012957610129610429565b600091825260209182902001546040516001600160a01b0390911680825292507f745c90b656b4aafe296c8ca35aeacfe56cb96c90e1d320e5da643fff1051b6c0910160405180910390a1505050565b3360009081526002602052604090205460ff161561019657600080fd5b6005546001546040516323b872dd60e01b815233600482015230602482015260448101919091526001600160a01b03909116906323b872dd90606401602060405180830381600087803b1580156101ec57600080fd5b505af1158015610200573d6000803e3d6000fd5b505050506040513d601f19601f82011682018060405250810190610224919061043f565b5060055460035460015460405163095ea7b360e01b81526001600160a01b039283166004820152602481019190915291169063095ea7b390604401602060405180830381600087803b15801561027957600080fd5b505af115801561028d573d6000803e3d6000fd5b505050506040513d601f19601f820116820180604052508101906102b1919061043f565b5060035460055460015460405163e8eda9df60e01b81526001600160a01b03928316600482015260248101919091523060448201526000606482015291169063e8eda9df90608401600060405180830381600087803b15801561031357600080fd5b505af1158015610327573d6000803e3d6000fd5b5050600680546001810182556000919091527ff652222313e28459528d920b65115c16c04f3efc82aaedc97be59f3f377c0d3f0180546001600160a01b031916331790555050565b6006818154811061037f57600080fd5b6000918252602090912001546001600160a01b0316905081565b6000602082840312156103ab57600080fd5b5035919050565b6000602082840312156103c457600080fd5b81356001600160a01b03811681146103db57600080fd5b9392505050565b60008282101561040257634e487b7160e01b600052601160045260246000fd5b500390565b60008261042457634e487b7160e01b600052601260045260246000fd5b500690565b634e487b7160e01b600052603260045260246000fd5b60006020828403121561045157600080fd5b815180151581146103db57600080fdfea264697066735822122072ef20083ed350270ac5a681a2f7f23ef840fdd0265d0c1ef78b5a0ef0c17c1764736f6c63430008090033",
  "immutableReferences": {},
  "source": "//SPDX-License-Identifier: MIT\npragma solidity ^0.8.0;\n\nimport \"./Interfaces/IERC20.sol\";\nimport \"./Interfaces/ILendingPool.sol\";\n\ncontract AAVEInterestLottery {\n\t// the timestamp of the drawing event\n\tuint public drawing;\n\t// the price of the ticket in DAI (100 DAI)\n\tuint ticketPrice = 100e18;\n\n\tmapping(address => bool) public purchasedTicket;\n\n\tILendingPool pool = ILendingPool(0x7d2768dE32b0b80b7a3454c06BdAc94A69DDc7A9);\n\tIERC20 aDai = IERC20(0x028171bCA77440897B824Ca71D1c56caC55b68A3); \n\tIERC20 dai = IERC20(0x6B175474E89094C44Da98b954EedeAC495271d0F);\n\n\t//Creating array allows us to keep track of all ticketHolders and ensures they do not buy ticket twice\n\taddress[] public ticketHolders;\n\n\tconstructor() {\n        drawing = block.timestamp + 1 weeks;\n\t}\n\n\t//This function handles both purchase of tickets for each user and approval & deposit of dai into pool to earn interest\n\tfunction purchase() external {\n\t\trequire(!purchasedTicket[msg.sender]);\n        dai.transferFrom(msg.sender, address(this), ticketPrice);\n\t\tdai.approve(address(pool), ticketPrice);\n\t\tpool.deposit(address(dai), ticketPrice, address(this), 0);\n\t\tticketHolders.push(msg.sender);\n\t}\n\n\tevent Winner(address);\n\n\t//Chainlink VRF better alternative here than block.timestamp for random number\n\tfunction pickWinner() external {\n        require(block.timestamp > drawing);\n\t\tuint totalPurchasers = ticketHolders.length;\n\t\tuint winnerIdx = uint (blockhash(block.number - 1)) % totalPurchasers;\n\t\taddress winner = ticketHolders[winnerIdx];\n\t\temit Winner(winner);\n\t}   \n}\n",
  "sourcePath": "/Users/josephdeangeloi/Documents/Github/BuildingOnAave/contracts/AAVEInterestLottery.sol",
  "compiler": {
    "name": "solc",
    "version": "0.8.9+commit.e5eed63a.Emscripten.clang"
  },
  "schemaVersion": "3.4.10",
  "updatedAt": "2022-10-24T21:20:37.652Z",
  "devdoc": {
    "kind": "dev",
    "methods": {},
    "version": 1
  },
  "userdoc": {
    "kind": "user",
    "methods": {},
    "version": 1
  }
}