{
  "contractName": "AAVECollateralGroup",
  "abi": [
    {
      "inputs": [
        {
          "internalType": "address[]",
          "name": "_members",
          "type": "address[]"
        }
      ],
      "stateMutability": "nonpayable",
      "type": "constructor"
    },
    {
      "inputs": [],
      "name": "withdraw",
      "outputs": [],
      "stateMutability": "nonpayable",
      "type": "function"
    },
    {
      "inputs": [
        {
          "internalType": "address",
          "name": "asset",
          "type": "address"
        },
        {
          "internalType": "uint256",
          "name": "amount",
          "type": "uint256"
        }
      ],
      "name": "borrow",
      "outputs": [],
      "stateMutability": "nonpayable",
      "type": "function"
    },
    {
      "inputs": [
        {
          "internalType": "address",
          "name": "asset",
          "type": "address"
        },
        {
          "internalType": "uint256",
          "name": "amount",
          "type": "uint256"
        }
      ],
      "name": "repay",
      "outputs": [],
      "stateMutability": "nonpayable",
      "type": "function"
    }
  ],
  "bytecode": "0x6080604052600080546001600160a01b0319908116737d2768de32b0b80b7a3454c06bdac94a69ddc7a917909155600180548216736b175474e89094c44da98b954eedeac495271d0f1790556002805490911673028171bca77440897b824ca71d1c56cac55b68a317905569021e19e0c9bab24000006003553480156200008557600080fd5b5060405162000c9438038062000c94833981016040819052620000a8916200037a565b8051620000bd906004906020840190620002c6565b5060005b8151811015620001a35760015482516001600160a01b03909116906323b872dd90849084908110620000f757620000f76200044c565b60209081029190910101516003546040516001600160e01b031960e085901b1681526001600160a01b0390921660048301523060248301526044820152606401602060405180830381600087803b1580156200015257600080fd5b505af115801562000167573d6000803e3d6000fd5b505050506040513d601f19601f820116820180604052508101906200018d919062000462565b50806200019a81620004a3565b915050620000c1565b5060006003548251620001b79190620004c1565b60015460005460405163095ea7b360e01b81526001600160a01b03918216600482015260248101849052929350169063095ea7b390604401602060405180830381600087803b1580156200020a57600080fd5b505af11580156200021f573d6000803e3d6000fd5b505050506040513d601f19601f8201168201806040525081019062000245919062000462565b506000805460015460405163e8eda9df60e01b81526001600160a01b039182166004820152602481018590523060448201526064810193909352169063e8eda9df90608401600060405180830381600087803b158015620002a557600080fd5b505af1158015620002ba573d6000803e3d6000fd5b505050505050620004e3565b8280548282559060005260206000209081019282156200031e579160200282015b828111156200031e57825182546001600160a01b0319166001600160a01b03909116178255602090920191600190910190620002e7565b506200032c92915062000330565b5090565b5b808211156200032c576000815560010162000331565b634e487b7160e01b600052604160045260246000fd5b80516001600160a01b03811681146200037557600080fd5b919050565b600060208083850312156200038e57600080fd5b82516001600160401b0380821115620003a657600080fd5b818501915085601f830112620003bb57600080fd5b815181811115620003d057620003d062000347565b8060051b604051601f19603f83011681018181108582111715620003f857620003f862000347565b6040529182528482019250838101850191888311156200041757600080fd5b938501935b82851015620004405762000430856200035d565b845293850193928501926200041c565b98975050505050505050565b634e487b7160e01b600052603260045260246000fd5b6000602082840312156200047557600080fd5b815180151581146200048657600080fd5b9392505050565b634e487b7160e01b600052601160045260246000fd5b6000600019821415620004ba57620004ba6200048d565b5060010190565b6000816000190483118215151615620004de57620004de6200048d565b500290565b6107a180620004f36000396000f3fe608060405234801561001057600080fd5b50600436106100415760003560e01c806322867d78146100465780633ccfd60b1461005b5780634b8a352914610063575b600080fd5b610059610054366004610646565b610076565b005b61005961021e565b610059610071366004610646565b610430565b6040516323b872dd60e01b8152336004820152306024820152604481018290526001600160a01b038316906323b872dd90606401602060405180830381600087803b1580156100c457600080fd5b505af11580156100d8573d6000803e3d6000fd5b505050506040513d601f19601f820116820180604052508101906100fc919061067e565b5060015460005460405163095ea7b360e01b81526001600160a01b0391821660048201526024810184905291169063095ea7b390604401602060405180830381600087803b15801561014d57600080fd5b505af1158015610161573d6000803e3d6000fd5b505050506040513d601f19601f82011682018060405250810190610185919061067e565b5060005460405163573ade8160e01b81526001600160a01b03848116600483015260248201849052600260448301523060648301529091169063573ade8190608401602060405180830381600087803b1580156101e157600080fd5b505af11580156101f5573d6000803e3d6000fd5b505050506040513d601f19601f8201168201806040525081019061021991906106a7565b505050565b610227336105dc565b61023057600080fd5b6002546040516370a0823160e01b81523060048201526000916001600160a01b0316906370a082319060240160206040518083038186803b15801561027457600080fd5b505afa158015610288573d6000803e3d6000fd5b505050506040513d601f19601f820116820180604052508101906102ac91906106a7565b6004549091506000906102bf90836106c0565b60025460005460405163095ea7b360e01b81526001600160a01b03918216600482015260248101869052929350169063095ea7b390604401602060405180830381600087803b15801561031157600080fd5b505af1158015610325573d6000803e3d6000fd5b505050506040513d601f19601f82011682018060405250810190610349919061067e565b5060005b60045481101561021957600054600154600480546001600160a01b03938416936369328dec931691869186908110610387576103876106e2565b60009182526020909120015460405160e085901b6001600160e01b03191681526001600160a01b0393841660048201526024810192909252919091166044820152606401602060405180830381600087803b1580156103e557600080fd5b505af11580156103f9573d6000803e3d6000fd5b505050506040513d601f19601f8201168201806040525081019061041d91906106a7565b5080610428816106f8565b91505061034d565b610439336105dc565b61044257600080fd5b6000805460015460405163a415bcad60e01b81526001600160a01b03918216600482015260248101859052600260448201526064810193909352306084840152169063a415bcad9060a401600060405180830381600087803b1580156104a757600080fd5b505af11580156104bb573d6000803e3d6000fd5b505060008054604051632fe4a15f60e21b81523060048201529193506001600160a01b0316915063bf92857c9060240160c06040518083038186803b15801561050357600080fd5b505afa158015610517573d6000803e3d6000fd5b505050506040513d601f19601f8201168201806040525081019061053b9190610721565b95505050505050671bc16d674ec80000811161055657600080fd5b60405163a9059cbb60e01b8152336004820152602481018390526001600160a01b0384169063a9059cbb90604401602060405180830381600087803b15801561059e57600080fd5b505af11580156105b2573d6000803e3d6000fd5b505050506040513d601f19601f820116820180604052508101906105d6919061067e565b50505050565b6000805b60045481101561063d57826001600160a01b031660048281548110610607576106076106e2565b6000918252602090912001546001600160a01b0316141561062b5750600192915050565b80610635816106f8565b9150506105e0565b50600092915050565b6000806040838503121561065957600080fd5b82356001600160a01b038116811461067057600080fd5b946020939093013593505050565b60006020828403121561069057600080fd5b815180151581146106a057600080fd5b9392505050565b6000602082840312156106b957600080fd5b5051919050565b6000826106dd57634e487b7160e01b600052601260045260246000fd5b500490565b634e487b7160e01b600052603260045260246000fd5b600060001982141561071a57634e487b7160e01b600052601160045260246000fd5b5060010190565b60008060008060008060c0878903121561073a57600080fd5b865195506020870151945060408701519350606087015192506080870151915060a08701519050929550929550929556fea264697066735822122019c51459f0cec8546191cb48ec85b5f949cda6f1b63c9971dd84c6c1de2ad76164736f6c63430008090033",
  "immutableReferences": {},
  "source": "// SPDX-License-Identifier: MIT\npragma solidity ^0.8.0;\n\nimport \"./Interfaces/IERC20.sol\";\nimport \"./Interfaces/ILendingPool.sol\";\n\ncontract AAVECollateralGroup {\n\tILendingPool pool = ILendingPool(0x7d2768dE32b0b80b7a3454c06BdAc94A69DDc7A9);\n\tIERC20 dai = IERC20(0x6B175474E89094C44Da98b954EedeAC495271d0F);\n\tIERC20 aDai = IERC20(0x028171bCA77440897B824Ca71D1c56caC55b68A3); \n\n\tuint depositAmount = 10000e18;\n\taddress[] members;\n\n\t//Here we transfer funds from each member to the contract. Member addresses are tracked in members array.\n\t//We also approve & deposit the total funds in the contract to the spent by the pool so we can earn interest\n\tconstructor(address[] memory _members) {\n\t\tmembers = _members;\n\t\tfor (uint i = 0;  i < _members.length; i++) {\n\t\t\tdai.transferFrom(_members[i], address(this), depositAmount);\n\t\t}\n\t\tuint totalDeposit = _members.length * depositAmount;\n\t\tdai.approve(address(pool), totalDeposit);\n\t\tpool.deposit(address(dai), totalDeposit, address(this), 0);\n\t}\n\n\tfunction isMember(address _address) private view returns (bool) {\n\t\tfor (uint i = 0; i < members.length; i++) {\n\t\t\tif (members[i] == _address) {\n\t\t\t\treturn true;\n\t\t\t}\n\t\t}\n\t\treturn false;\n\t}\n\n\t//Pays back each member their \"share\" of the aDai interest earned. Pool must be approved to spend aDai before withdrawn.\n\tfunction withdraw() external {\n\t\trequire(isMember(msg.sender));\n\t\tuint totalBalance = aDai.balanceOf(address(this));\n\t\tuint fundsPerMember = totalBalance / members.length;\n\t\taDai.approve(address(pool), totalBalance);\n\t\tfor (uint i = 0; i < members.length; i++) {\n\t\t\tpool.withdraw(address(dai), fundsPerMember, members[i]);\n\t\t}\n\t}\n\n\t//Once borrow is called, amount must be sent via IERC20 to msg.sender so they can use it.\n\t//getUserAccountData function in the Pool contract provides info on parameters that must be returned when called\n\t//We are only interested in the healthFactor so return that only here. \n\tfunction borrow(address asset, uint amount) external {\n\t\trequire(isMember(msg.sender));\n\t\tpool.borrow(address(dai), amount, 2, 0, address(this));\n\t    (,,,,, uint healthFactor) = pool.getUserAccountData(address(this));\n\t\trequire(healthFactor > 2e18);\n\t\tIERC20(asset).transfer(msg.sender, amount);\n\t}\n\n\t//Assets must first be sent from msg.sender back to this contract before it can be paid\n\t//Next approve must be called on the dai contract to give the pool permission to use/access for repayment\n\t//Finally we can call repay on the pool for the amount specified.\n\tfunction repay(address asset, uint amount) external {\n\t\tIERC20(asset).transferFrom(msg.sender, address(this), amount);\n\t\tIERC20(dai).approve(address(pool), amount);\n\t\tpool.repay(asset, amount, 2, address(this));\n\t}\n}\n",
  "sourcePath": "/Users/josephdeangeloi/Documents/Github/BuildingOnAave/contracts/AAVECollateralGroup.sol",
  "compiler": {
    "name": "solc",
    "version": "0.8.9+commit.e5eed63a.Emscripten.clang"
  },
  "schemaVersion": "3.4.10",
  "updatedAt": "2022-10-24T21:20:37.641Z",
  "devdoc": {
    "kind": "dev",
    "methods": {},
    "version": 1
  },
  "userdoc": {
    "kind": "user",
    "methods": {},
    "version": 1
  }
}