{
  "contractName": "FlashVoter",
  "abi": [
    {
      "inputs": [
        {
          "internalType": "contract Govern",
          "name": "_governanceToken",
          "type": "address"
        },
        {
          "internalType": "uint256",
          "name": "_proposalId",
          "type": "uint256"
        }
      ],
      "stateMutability": "nonpayable",
      "type": "constructor"
    },
    {
      "inputs": [],
      "name": "governanceToken",
      "outputs": [
        {
          "internalType": "contract Govern",
          "name": "",
          "type": "address"
        }
      ],
      "stateMutability": "view",
      "type": "function"
    },
    {
      "inputs": [],
      "name": "proposalId",
      "outputs": [
        {
          "internalType": "uint256",
          "name": "",
          "type": "uint256"
        }
      ],
      "stateMutability": "view",
      "type": "function"
    },
    {
      "inputs": [],
      "name": "flashVote",
      "outputs": [],
      "stateMutability": "nonpayable",
      "type": "function"
    },
    {
      "inputs": [
        {
          "internalType": "address[]",
          "name": "",
          "type": "address[]"
        },
        {
          "internalType": "uint256[]",
          "name": "amounts",
          "type": "uint256[]"
        },
        {
          "internalType": "uint256[]",
          "name": "premiums",
          "type": "uint256[]"
        },
        {
          "internalType": "address",
          "name": "",
          "type": "address"
        },
        {
          "internalType": "bytes",
          "name": "",
          "type": "bytes"
        }
      ],
      "name": "executeOperation",
      "outputs": [
        {
          "internalType": "bool",
          "name": "",
          "type": "bool"
        }
      ],
      "stateMutability": "nonpayable",
      "type": "function"
    }
  ],
  "bytecode": "0x608060405234801561001057600080fd5b506040516108a43803806108a483398101604081905261002f91610058565b600080546001600160a01b0319166001600160a01b039390931692909217909155600155610092565b6000806040838503121561006b57600080fd5b82516001600160a01b038116811461008257600080fd5b6020939093015192949293505050565b610803806100a16000396000f3fe608060405234801561001057600080fd5b506004361061004c5760003560e01c80632dfca44514610051578063920f5c841461006d578063983af4ca14610090578063f96dae0a1461009a575b600080fd5b61005a60015481565b6040519081526020015b60405180910390f35b61008061007b366004610590565b6100c5565b6040519015158152602001610064565b610098610395565b005b6000546100ad906001600160a01b031681565b6040516001600160a01b039091168152602001610064565b6000805460405163095ea7b360e01b81526001600160a01b03909116600482015269152d02c7e14af68000006024820152736b175474e89094c44da98b954eedeac495271d0f9063095ea7b390604401602060405180830381600087803b15801561012f57600080fd5b505af1158015610143573d6000803e3d6000fd5b505050506040513d601f19601f820116820180604052508101906101679190610677565b50600054604051636cb504a560e11b815269152d02c7e14af680000060048201526001600160a01b039091169063d96a094a90602401600060405180830381600087803b1580156101b757600080fd5b505af11580156101cb573d6000803e3d6000fd5b5050600054600180546040516364e93d7f60e11b8152600481019190915260248101919091526001600160a01b03909116925063c9d27afe9150604401600060405180830381600087803b15801561022257600080fd5b505af1158015610236573d6000803e3d6000fd5b50506000546040516372424d9960e11b815269152d02c7e14af680000060048201526001600160a01b03909116925063e4849b329150602401600060405180830381600087803b15801561028957600080fd5b505af115801561029d573d6000803e3d6000fd5b505050506000868660008181106102b6576102b66106a0565b90506020020135898960008181106102d0576102d06106a0565b905060200201356102e191906106b6565b60405163095ea7b360e01b8152737d2768de32b0b80b7a3454c06bdac94a69ddc7a9600482015260248101829052909150736b175474e89094c44da98b954eedeac495271d0f9063095ea7b390604401602060405180830381600087803b15801561034b57600080fd5b505af115801561035f573d6000803e3d6000fd5b505050506040513d601f19601f820116820180604052508101906103839190610677565b5060019b9a5050505050505050505050565b60408051600180825281830190925260009160208083019080368337019050509050736b175474e89094c44da98b954eedeac495271d0f816000815181106103df576103df6106a0565b6001600160a01b03929092166020928302919091019091015260408051600180825281830190925260009181602001602082028036833701905050905069152d02c7e14af68000008160008151811061043a5761043a6106a0565b602090810291909101015260408051600180825281830190925260009181602001602082028036833701905050905060008160008151811061047e5761047e6106a0565b602090810291909101015260405163ab9c4b5d60e01b8152737d2768de32b0b80b7a3454c06bdac94a69ddc7a99063ab9c4b5d906104cb9030908790879087908490600090600401610717565b600060405180830381600087803b1580156104e557600080fd5b505af11580156104f9573d6000803e3d6000fd5b50505050505050565b60008083601f84011261051457600080fd5b50813567ffffffffffffffff81111561052c57600080fd5b6020830191508360208260051b850101111561054757600080fd5b9250929050565b60008083601f84011261056057600080fd5b50813567ffffffffffffffff81111561057857600080fd5b60208301915083602082850101111561054757600080fd5b600080600080600080600080600060a08a8c0312156105ae57600080fd5b893567ffffffffffffffff808211156105c657600080fd5b6105d28d838e01610502565b909b50995060208c01359150808211156105eb57600080fd5b6105f78d838e01610502565b909950975060408c013591508082111561061057600080fd5b61061c8d838e01610502565b909750955060608c013591506001600160a01b038216821461063d57600080fd5b90935060808b0135908082111561065357600080fd5b506106608c828d0161054e565b915080935050809150509295985092959850929598565b60006020828403121561068957600080fd5b8151801515811461069957600080fd5b9392505050565b634e487b7160e01b600052603260045260246000fd5b600082198211156106d757634e487b7160e01b600052601160045260246000fd5b500190565b600081518084526020808501945080840160005b8381101561070c578151875295820195908201906001016106f0565b509495945050505050565b6001600160a01b03878116825260e06020808401829052885191840182905260009289820192909190610100860190855b81811015610766578551851683529483019491830191600101610748565b5050858103604087015261077a818b6106dc565b9350505050828103606084015261079181876106dc565b6001600160a01b038616608085015283810360a08501526000815261ffff851660c085015260200191506107c29050565b97965050505050505056fea26469706673582212209587146303db9bf8601ccb31590d20bfbcad0328a68ecd9500744fcbb4be403f64736f6c63430008090033",
  "immutableReferences": {},
  "source": "//SPDX-License-Identifier: Unlicense\npragma solidity ^0.8.0;\n\nimport \"./Interfaces/Govern.sol\";\nimport \"./Interfaces/ILendingPool.sol\";\n\ncontract FlashVoter {\n    ILendingPool constant pool = ILendingPool(0x7d2768dE32b0b80b7a3454c06BdAc94A69DDc7A9);\n    IERC20 constant DAI = IERC20(0x6B175474E89094C44Da98b954EedeAC495271d0F);\n\n    uint constant borrowAmount = 100000e18;\n\n    Govern public governanceToken;\n    uint public proposalId;\n\n    constructor(Govern _governanceToken, uint _proposalId) {\n        governanceToken = _governanceToken;\n        proposalId = _proposalId;\n    }\n\n    //Must pass in all 7 parameters when calling flashLoan. \n    //Assets, Amounts, & Modes arguments are all arrays so must use memory keyword...\n    //... then upon assignment use \"new\" keyword with appropriate type to create new array. \n    //We must also set the array length which will be 1 for each one. \n    //Finally we assign the first and only array postiion [0] to the value/variable we are assigning it to\n    function flashVote() external {\n        address[] memory assets = new address[](1);\n        assets[0] = address(DAI);\n\n        uint[] memory amounts = new uint[](1);\n        amounts[0] = borrowAmount;\n\n        uint[] memory modes = new uint[](1);\n        modes[0] = 0;\n\n        pool.flashLoan(address(this), assets, amounts, modes, address(this), \"\", 0);\n    }\n\n    function executeOperation(\n        address[] calldata,\n        uint256[] calldata amounts,\n        uint256[] calldata premiums,\n        address, bytes calldata\n    ) external returns(bool) {\n        DAI.approve(address(governanceToken), borrowAmount);\n        governanceToken.buy(borrowAmount);\n        governanceToken.vote(proposalId, true);\n        governanceToken.sell(borrowAmount);\n\n        uint totalOwed = amounts[0] + premiums[0];\n        IERC20(DAI).approve(address(pool), totalOwed);\n        return true;\n    }\n}",
  "sourcePath": "/Users/josephdeangeloi/Documents/Github/BuildingOnAave/contracts/AAVEFlashVoter.sol",
  "compiler": {
    "name": "solc",
    "version": "0.8.9+commit.e5eed63a.Emscripten.clang"
  },
  "schemaVersion": "3.4.10",
  "updatedAt": "2022-10-24T21:20:37.647Z",
  "devdoc": {
    "kind": "dev",
    "methods": {},
    "version": 1
  },
  "userdoc": {
    "kind": "user",
    "methods": {},
    "version": 1
  }
}