{
  "contractName": "Govern",
  "abi": [
    {
      "inputs": [],
      "stateMutability": "nonpayable",
      "type": "constructor"
    },
    {
      "anonymous": false,
      "inputs": [
        {
          "indexed": true,
          "internalType": "address",
          "name": "owner",
          "type": "address"
        },
        {
          "indexed": true,
          "internalType": "address",
          "name": "spender",
          "type": "address"
        },
        {
          "indexed": false,
          "internalType": "uint256",
          "name": "value",
          "type": "uint256"
        }
      ],
      "name": "Approval",
      "type": "event"
    },
    {
      "anonymous": false,
      "inputs": [
        {
          "indexed": true,
          "internalType": "address",
          "name": "from",
          "type": "address"
        },
        {
          "indexed": true,
          "internalType": "address",
          "name": "to",
          "type": "address"
        },
        {
          "indexed": false,
          "internalType": "uint256",
          "name": "value",
          "type": "uint256"
        }
      ],
      "name": "Transfer",
      "type": "event"
    },
    {
      "inputs": [
        {
          "internalType": "address",
          "name": "owner",
          "type": "address"
        },
        {
          "internalType": "address",
          "name": "spender",
          "type": "address"
        }
      ],
      "name": "allowance",
      "outputs": [
        {
          "internalType": "uint256",
          "name": "",
          "type": "uint256"
        }
      ],
      "stateMutability": "view",
      "type": "function"
    },
    {
      "inputs": [
        {
          "internalType": "address",
          "name": "spender",
          "type": "address"
        },
        {
          "internalType": "uint256",
          "name": "amount",
          "type": "uint256"
        }
      ],
      "name": "approve",
      "outputs": [
        {
          "internalType": "bool",
          "name": "",
          "type": "bool"
        }
      ],
      "stateMutability": "nonpayable",
      "type": "function"
    },
    {
      "inputs": [
        {
          "internalType": "address",
          "name": "account",
          "type": "address"
        }
      ],
      "name": "balanceOf",
      "outputs": [
        {
          "internalType": "uint256",
          "name": "",
          "type": "uint256"
        }
      ],
      "stateMutability": "view",
      "type": "function"
    },
    {
      "inputs": [],
      "name": "decimals",
      "outputs": [
        {
          "internalType": "uint8",
          "name": "",
          "type": "uint8"
        }
      ],
      "stateMutability": "view",
      "type": "function"
    },
    {
      "inputs": [
        {
          "internalType": "address",
          "name": "spender",
          "type": "address"
        },
        {
          "internalType": "uint256",
          "name": "subtractedValue",
          "type": "uint256"
        }
      ],
      "name": "decreaseAllowance",
      "outputs": [
        {
          "internalType": "bool",
          "name": "",
          "type": "bool"
        }
      ],
      "stateMutability": "nonpayable",
      "type": "function"
    },
    {
      "inputs": [
        {
          "internalType": "address",
          "name": "spender",
          "type": "address"
        },
        {
          "internalType": "uint256",
          "name": "addedValue",
          "type": "uint256"
        }
      ],
      "name": "increaseAllowance",
      "outputs": [
        {
          "internalType": "bool",
          "name": "",
          "type": "bool"
        }
      ],
      "stateMutability": "nonpayable",
      "type": "function"
    },
    {
      "inputs": [],
      "name": "name",
      "outputs": [
        {
          "internalType": "string",
          "name": "",
          "type": "string"
        }
      ],
      "stateMutability": "view",
      "type": "function"
    },
    {
      "inputs": [
        {
          "internalType": "uint256",
          "name": "",
          "type": "uint256"
        }
      ],
      "name": "proposals",
      "outputs": [
        {
          "internalType": "uint256",
          "name": "yesCount",
          "type": "uint256"
        },
        {
          "internalType": "uint256",
          "name": "noCount",
          "type": "uint256"
        }
      ],
      "stateMutability": "view",
      "type": "function"
    },
    {
      "inputs": [],
      "name": "symbol",
      "outputs": [
        {
          "internalType": "string",
          "name": "",
          "type": "string"
        }
      ],
      "stateMutability": "view",
      "type": "function"
    },
    {
      "inputs": [],
      "name": "totalSupply",
      "outputs": [
        {
          "internalType": "uint256",
          "name": "",
          "type": "uint256"
        }
      ],
      "stateMutability": "view",
      "type": "function"
    },
    {
      "inputs": [
        {
          "internalType": "address",
          "name": "to",
          "type": "address"
        },
        {
          "internalType": "uint256",
          "name": "amount",
          "type": "uint256"
        }
      ],
      "name": "transfer",
      "outputs": [
        {
          "internalType": "bool",
          "name": "",
          "type": "bool"
        }
      ],
      "stateMutability": "nonpayable",
      "type": "function"
    },
    {
      "inputs": [
        {
          "internalType": "address",
          "name": "from",
          "type": "address"
        },
        {
          "internalType": "address",
          "name": "to",
          "type": "address"
        },
        {
          "internalType": "uint256",
          "name": "amount",
          "type": "uint256"
        }
      ],
      "name": "transferFrom",
      "outputs": [
        {
          "internalType": "bool",
          "name": "",
          "type": "bool"
        }
      ],
      "stateMutability": "nonpayable",
      "type": "function"
    },
    {
      "inputs": [
        {
          "internalType": "uint256",
          "name": "_amount",
          "type": "uint256"
        }
      ],
      "name": "buy",
      "outputs": [],
      "stateMutability": "nonpayable",
      "type": "function"
    },
    {
      "inputs": [
        {
          "internalType": "uint256",
          "name": "_amount",
          "type": "uint256"
        }
      ],
      "name": "sell",
      "outputs": [],
      "stateMutability": "nonpayable",
      "type": "function"
    },
    {
      "inputs": [
        {
          "internalType": "uint256",
          "name": "_proposalId",
          "type": "uint256"
        },
        {
          "internalType": "bool",
          "name": "_supports",
          "type": "bool"
        }
      ],
      "name": "vote",
      "outputs": [],
      "stateMutability": "nonpayable",
      "type": "function"
    }
  ],
  "bytecode": "0x60806040523480156200001157600080fd5b506040518060400160405280600681526020016523b7bb32b93760d11b8152506040518060400160405280600381526020016223a7ab60e91b81525081600390805190602001906200006592919062000084565b5080516200007b90600490602084019062000084565b50505062000167565b82805462000092906200012a565b90600052602060002090601f016020900481019282620000b6576000855562000101565b82601f10620000d157805160ff191683800117855562000101565b8280016001018555821562000101579182015b8281111562000101578251825591602001919060010190620000e4565b506200010f92915062000113565b5090565b5b808211156200010f576000815560010162000114565b600181811c908216806200013f57607f821691505b602082108114156200016157634e487b7160e01b600052602260045260246000fd5b50919050565b610d5f80620001776000396000f3fe608060405234801561001057600080fd5b50600436106100f55760003560e01c806370a0823111610097578063c9d27afe11610066578063c9d27afe14610211578063d96a094a14610226578063dd62ed3e14610239578063e4849b321461024c57600080fd5b806370a08231146101ba57806395d89b41146101e3578063a457c2d7146101eb578063a9059cbb146101fe57600080fd5b806318160ddd116100d357806318160ddd1461017357806323b872dd14610185578063313ce5671461019857806339509351146101a757600080fd5b8063013cf08b146100fa57806306fdde031461013b578063095ea7b314610150575b600080fd5b610121610108366004610b28565b6007602052600090815260409020805460019091015482565b604080519283526020830191909152015b60405180910390f35b61014361025f565b6040516101329190610b41565b61016361015e366004610bb2565b6102f1565b6040519015158152602001610132565b6002545b604051908152602001610132565b610163610193366004610bdc565b610309565b60405160128152602001610132565b6101636101b5366004610bb2565b61032d565b6101776101c8366004610c18565b6001600160a01b031660009081526020819052604090205490565b61014361034f565b6101636101f9366004610bb2565b61035e565b61016361020c366004610bb2565b6103de565b61022461021f366004610c48565b6103ec565b005b610224610234366004610b28565b610499565b610177610247366004610c78565b610538565b61022461025a366004610b28565b610563565b60606003805461026e90610cab565b80601f016020809104026020016040519081016040528092919081815260200182805461029a90610cab565b80156102e75780601f106102bc576101008083540402835291602001916102e7565b820191906000526020600020905b8154815290600101906020018083116102ca57829003601f168201915b5050505050905090565b6000336102ff8185856105fc565b5060019392505050565b600033610317858285610721565b61032285858561079b565b506001949350505050565b6000336102ff8185856103408383610538565b61034a9190610ce6565b6105fc565b60606004805461026e90610cab565b6000338161036c8286610538565b9050838110156103d15760405162461bcd60e51b815260206004820152602560248201527f45524332303a2064656372656173656420616c6c6f77616e63652062656c6f77604482015264207a65726f60d81b60648201526084015b60405180910390fd5b61032282868684036105fc565b6000336102ff81858561079b565b3360009081526005602052604090205460ff161561040957600080fd5b6000828152600760205260409020811561044b57336000908152602081905260409020548160000160008282546104409190610ce6565b909155506104749050565b3360009081526020819052604090205481600101600082825461046e9190610ce6565b90915550505b33600090815260029190910160205260409020805460ff191691151591909117905550565b6040516323b872dd60e01b815233600482015230602482015260448101829052736b175474e89094c44da98b954eedeac495271d0f906323b872dd90606401602060405180830381600087803b1580156104f257600080fd5b505af1158015610506573d6000803e3d6000fd5b505050506040513d601f19601f8201168201806040525081019061052a9190610d0c565b50610535338261093f565b50565b6001600160a01b03918216600090815260016020908152604080832093909416825291909152205490565b61056d33826109fe565b60405163a9059cbb60e01b815233600482015260248101829052736b175474e89094c44da98b954eedeac495271d0f9063a9059cbb90604401602060405180830381600087803b1580156105c057600080fd5b505af11580156105d4573d6000803e3d6000fd5b505050506040513d601f19601f820116820180604052508101906105f89190610d0c565b5050565b6001600160a01b03831661065e5760405162461bcd60e51b8152602060048201526024808201527f45524332303a20617070726f76652066726f6d20746865207a65726f206164646044820152637265737360e01b60648201526084016103c8565b6001600160a01b0382166106bf5760405162461bcd60e51b815260206004820152602260248201527f45524332303a20617070726f766520746f20746865207a65726f206164647265604482015261737360f01b60648201526084016103c8565b6001600160a01b0383811660008181526001602090815260408083209487168084529482529182902085905590518481527f8c5be1e5ebec7d5bd14f71427d1e84f3dd0314c0f7b2291e5b200ac8c7c3b92591015b60405180910390a3505050565b600061072d8484610538565b9050600019811461079557818110156107885760405162461bcd60e51b815260206004820152601d60248201527f45524332303a20696e73756666696369656e7420616c6c6f77616e636500000060448201526064016103c8565b61079584848484036105fc565b50505050565b6001600160a01b0383166107ff5760405162461bcd60e51b815260206004820152602560248201527f45524332303a207472616e736665722066726f6d20746865207a65726f206164604482015264647265737360d81b60648201526084016103c8565b6001600160a01b0382166108615760405162461bcd60e51b815260206004820152602360248201527f45524332303a207472616e7366657220746f20746865207a65726f206164647260448201526265737360e81b60648201526084016103c8565b6001600160a01b038316600090815260208190526040902054818110156108d95760405162461bcd60e51b815260206004820152602660248201527f45524332303a207472616e7366657220616d6f756e7420657863656564732062604482015265616c616e636560d01b60648201526084016103c8565b6001600160a01b03848116600081815260208181526040808320878703905593871680835291849020805487019055925185815290927fddf252ad1be2c89b69c2b068fc378daa952ba7f163c4a11628f55a4df523b3ef910160405180910390a3610795565b6001600160a01b0382166109955760405162461bcd60e51b815260206004820152601f60248201527f45524332303a206d696e7420746f20746865207a65726f20616464726573730060448201526064016103c8565b80600260008282546109a79190610ce6565b90915550506001600160a01b038216600081815260208181526040808320805486019055518481527fddf252ad1be2c89b69c2b068fc378daa952ba7f163c4a11628f55a4df523b3ef910160405180910390a35050565b6001600160a01b038216610a5e5760405162461bcd60e51b815260206004820152602160248201527f45524332303a206275726e2066726f6d20746865207a65726f206164647265736044820152607360f81b60648201526084016103c8565b6001600160a01b03821660009081526020819052604090205481811015610ad25760405162461bcd60e51b815260206004820152602260248201527f45524332303a206275726e20616d6f756e7420657863656564732062616c616e604482015261636560f01b60648201526084016103c8565b6001600160a01b0383166000818152602081815260408083208686039055600280548790039055518581529192917fddf252ad1be2c89b69c2b068fc378daa952ba7f163c4a11628f55a4df523b3ef9101610714565b600060208284031215610b3a57600080fd5b5035919050565b600060208083528351808285015260005b81811015610b6e57858101830151858201604001528201610b52565b81811115610b80576000604083870101525b50601f01601f1916929092016040019392505050565b80356001600160a01b0381168114610bad57600080fd5b919050565b60008060408385031215610bc557600080fd5b610bce83610b96565b946020939093013593505050565b600080600060608486031215610bf157600080fd5b610bfa84610b96565b9250610c0860208501610b96565b9150604084013590509250925092565b600060208284031215610c2a57600080fd5b610c3382610b96565b9392505050565b801515811461053557600080fd5b60008060408385031215610c5b57600080fd5b823591506020830135610c6d81610c3a565b809150509250929050565b60008060408385031215610c8b57600080fd5b610c9483610b96565b9150610ca260208401610b96565b90509250929050565b600181811c90821680610cbf57607f821691505b60208210811415610ce057634e487b7160e01b600052602260045260246000fd5b50919050565b60008219821115610d0757634e487b7160e01b600052601160045260246000fd5b500190565b600060208284031215610d1e57600080fd5b8151610c3381610c3a56fea26469706673582212206f540642bf41a4200940495fab0db744736c3265ffa38145910e388be776626c64736f6c63430008090033",
  "immutableReferences": {},
  "source": "// SPDX-License-Identifier: MIT\npragma solidity ^0.8.0;\n\nimport \"../ERC20.sol\";\n\ncontract Govern is ERC20 {\n    IERC20 constant DAI = IERC20(0x6B175474E89094C44Da98b954EedeAC495271d0F);\n    mapping(address => bool) hasVoted;\n\n    struct Proposal {\n        uint yesCount;\n        uint noCount;\n        mapping(address => bool) hasVoted;\n    }\n    \n    uint numProposals;\n    mapping(uint => Proposal) public proposals;\n\n    constructor() ERC20(\"Govern\", \"GOV\") {}\n    \n    function buy(uint _amount) external {\n        DAI.transferFrom(msg.sender, address(this), _amount);\n        _mint(msg.sender, _amount);\n    }\n\n    function sell(uint _amount) external {\n        _burn(msg.sender, _amount);\n        DAI.transfer(msg.sender, _amount);\n    }\n\n    function vote(uint _proposalId, bool _supports) external {\n        require(!hasVoted[msg.sender]);\n        Proposal storage proposal = proposals[_proposalId];\n\n        if(_supports) {\n            proposal.yesCount += balanceOf(msg.sender);\n        } else {\n            proposal.noCount += balanceOf(msg.sender);\n        }\n\n        proposal.hasVoted[msg.sender] = _supports;\n    }\n}",
  "sourcePath": "/Users/josephdeangeloi/Documents/Github/BuildingOnAave/contracts/Interfaces/Govern.sol",
  "compiler": {
    "name": "solc",
    "version": "0.8.9+commit.e5eed63a.Emscripten.clang"
  },
  "schemaVersion": "3.4.10",
  "updatedAt": "2022-10-24T21:20:37.663Z",
  "devdoc": {
    "kind": "dev",
    "methods": {
      "allowance(address,address)": {
        "details": "See {IERC20-allowance}."
      },
      "approve(address,uint256)": {
        "details": "See {IERC20-approve}. NOTE: If `amount` is the maximum `uint256`, the allowance is not updated on `transferFrom`. This is semantically equivalent to an infinite approval. Requirements: - `spender` cannot be the zero address."
      },
      "balanceOf(address)": {
        "details": "See {IERC20-balanceOf}."
      },
      "decimals()": {
        "details": "Returns the number of decimals used to get its user representation. For example, if `decimals` equals `2`, a balance of `505` tokens should be displayed to a user as `5.05` (`505 / 10 ** 2`). Tokens usually opt for a value of 18, imitating the relationship between Ether and Wei. This is the value {ERC20} uses, unless this function is overridden; NOTE: This information is only used for _display_ purposes: it in no way affects any of the arithmetic of the contract, including {IERC20-balanceOf} and {IERC20-transfer}."
      },
      "decreaseAllowance(address,uint256)": {
        "details": "Atomically decreases the allowance granted to `spender` by the caller. This is an alternative to {approve} that can be used as a mitigation for problems described in {IERC20-approve}. Emits an {Approval} event indicating the updated allowance. Requirements: - `spender` cannot be the zero address. - `spender` must have allowance for the caller of at least `subtractedValue`."
      },
      "increaseAllowance(address,uint256)": {
        "details": "Atomically increases the allowance granted to `spender` by the caller. This is an alternative to {approve} that can be used as a mitigation for problems described in {IERC20-approve}. Emits an {Approval} event indicating the updated allowance. Requirements: - `spender` cannot be the zero address."
      },
      "name()": {
        "details": "Returns the name of the token."
      },
      "symbol()": {
        "details": "Returns the symbol of the token, usually a shorter version of the name."
      },
      "totalSupply()": {
        "details": "See {IERC20-totalSupply}."
      },
      "transfer(address,uint256)": {
        "details": "See {IERC20-transfer}. Requirements: - `to` cannot be the zero address. - the caller must have a balance of at least `amount`."
      },
      "transferFrom(address,address,uint256)": {
        "details": "See {IERC20-transferFrom}. Emits an {Approval} event indicating the updated allowance. This is not required by the EIP. See the note at the beginning of {ERC20}. NOTE: Does not update the allowance if the current allowance is the maximum `uint256`. Requirements: - `from` and `to` cannot be the zero address. - `from` must have a balance of at least `amount`. - the caller must have allowance for ``from``'s tokens of at least `amount`."
      }
    },
    "version": 1
  },
  "userdoc": {
    "kind": "user",
    "methods": {},
    "version": 1
  }
}