{
  "contractName": "VanillaEscrow",
  "abi": [
    {
      "inputs": [
        {
          "internalType": "address",
          "name": "_arbiter",
          "type": "address"
        },
        {
          "internalType": "address",
          "name": "_beneficiary",
          "type": "address"
        }
      ],
      "stateMutability": "payable",
      "type": "constructor"
    },
    {
      "inputs": [],
      "name": "arbiter",
      "outputs": [
        {
          "internalType": "address",
          "name": "",
          "type": "address"
        }
      ],
      "stateMutability": "view",
      "type": "function"
    },
    {
      "inputs": [],
      "name": "beneficiary",
      "outputs": [
        {
          "internalType": "address",
          "name": "",
          "type": "address"
        }
      ],
      "stateMutability": "view",
      "type": "function"
    },
    {
      "inputs": [],
      "name": "depositor",
      "outputs": [
        {
          "internalType": "address",
          "name": "",
          "type": "address"
        }
      ],
      "stateMutability": "view",
      "type": "function"
    },
    {
      "inputs": [],
      "name": "approve",
      "outputs": [],
      "stateMutability": "nonpayable",
      "type": "function"
    }
  ],
  "bytecode": "0x608060405260405161025a38038061025a8339810160408190526100229161007f565b600280546001600160a01b039384166001600160a01b03199182161790915560018054929093169181169190911790915560008054909116331790556100b2565b80516001600160a01b038116811461007a57600080fd5b919050565b6000806040838503121561009257600080fd5b61009b83610063565b91506100a960208401610063565b90509250929050565b610199806100c16000396000f3fe608060405234801561001057600080fd5b506004361061004c5760003560e01c806312424e3f1461005157806338af3eed1461005b578063c7c4ff461461008a578063fe25e00a1461009d575b600080fd5b6100596100b0565b005b60015461006e906001600160a01b031681565b6040516001600160a01b03909116815260200160405180910390f35b60005461006e906001600160a01b031681565b60025461006e906001600160a01b031681565b6002546001600160a01b031633146100c757600080fd5b6001546040516000916001600160a01b03169047908381818185875af1925050503d8060008114610114576040519150601f19603f3d011682016040523d82523d6000602084013e610119565b606091505b50509050806101605760405162461bcd60e51b815260206004820152600f60248201526e151c985b9cd9995c8811985a5b1959608a1b604482015260640160405180910390fd5b5056fea2646970667358221220e44a23f77032929bf3896f2791c3052517536298b2728e4a60bcd19b0548073a64736f6c63430008090033",
  "immutableReferences": {},
  "source": "// SPDX-License-Identifier: MIT\npragma solidity ^0.8.0;\n\ncontract VanillaEscrow {\n    address public depositor;\n    address public beneficiary;\n    address public arbiter;\n\n    constructor(address _arbiter, address _beneficiary) payable {\n        arbiter = _arbiter;\n        beneficiary = _beneficiary;\n        depositor = msg.sender;\n    }\n\n    function approve() external {\n        require(msg.sender == arbiter);\n        (bool success, ) = payable(beneficiary).call{value: address(this).balance}(\"\");\n        require(success, \"Transfer Failed\");\n    }\n}",
  "sourcePath": "/Users/josephdeangeloi/Documents/Github/BuildingOnAave/contracts/VanillaEscrow.sol",
  "compiler": {
    "name": "solc",
    "version": "0.8.9+commit.e5eed63a.Emscripten.clang"
  },
  "schemaVersion": "3.4.10",
  "updatedAt": "2022-10-24T21:20:37.676Z",
  "devdoc": {
    "kind": "dev",
    "methods": {},
    "version": 1
  },
  "userdoc": {
    "kind": "user",
    "methods": {},
    "version": 1
  }
}